{
  "_format": "hh-sol-artifact-1",
  "contractName": "Bank",
  "sourceName": "contracts/Bank.sol",
  "abi": [
    {
      "inputs": [],
      "stateMutability": "nonpayable",
      "type": "constructor"
    },
    {
      "anonymous": false,
      "inputs": [
        {
          "indexed": true,
          "internalType": "address",
          "name": "owner",
          "type": "address"
        },
        {
          "indexed": false,
          "internalType": "string",
          "name": "name",
          "type": "string"
        },
        {
          "indexed": false,
          "internalType": "uint256",
          "name": "amount",
          "type": "uint256"
        }
      ],
      "name": "Deposit",
      "type": "event"
    },
    {
      "anonymous": false,
      "inputs": [
        {
          "indexed": true,
          "internalType": "address",
          "name": "owner",
          "type": "address"
        },
        {
          "indexed": false,
          "internalType": "string",
          "name": "name",
          "type": "string"
        },
        {
          "indexed": false,
          "internalType": "uint256",
          "name": "amount",
          "type": "uint256"
        }
      ],
      "name": "Withdraw",
      "type": "event"
    },
    {
      "inputs": [
        {
          "internalType": "string",
          "name": "name",
          "type": "string"
        }
      ],
      "name": "createAccount",
      "outputs": [],
      "stateMutability": "nonpayable",
      "type": "function"
    },
    {
      "inputs": [
        {
          "internalType": "uint256",
          "name": "index",
          "type": "uint256"
        }
      ],
      "name": "deposit",
      "outputs": [],
      "stateMutability": "payable",
      "type": "function"
    },
    {
      "inputs": [
        {
          "internalType": "uint256",
          "name": "index",
          "type": "uint256"
        }
      ],
      "name": "getAccount",
      "outputs": [
        {
          "components": [
            {
              "internalType": "uint256",
              "name": "id",
              "type": "uint256"
            },
            {
              "internalType": "string",
              "name": "_name",
              "type": "string"
            },
            {
              "internalType": "uint256",
              "name": "_balance",
              "type": "uint256"
            },
            {
              "internalType": "bool",
              "name": "isValue",
              "type": "bool"
            }
          ],
          "internalType": "struct Account",
          "name": "",
          "type": "tuple"
        }
      ],
      "stateMutability": "view",
      "type": "function"
    },
    {
      "inputs": [],
      "name": "getAccountCount",
      "outputs": [
        {
          "internalType": "uint256",
          "name": "",
          "type": "uint256"
        }
      ],
      "stateMutability": "view",
      "type": "function"
    },
    {
      "inputs": [],
      "name": "owner",
      "outputs": [
        {
          "internalType": "address",
          "name": "",
          "type": "address"
        }
      ],
      "stateMutability": "view",
      "type": "function"
    },
    {
      "inputs": [
        {
          "internalType": "uint256",
          "name": "reciver",
          "type": "uint256"
        },
        {
          "internalType": "uint256",
          "name": "sender",
          "type": "uint256"
        },
        {
          "internalType": "uint256",
          "name": "amount",
          "type": "uint256"
        }
      ],
      "name": "transfer",
      "outputs": [],
      "stateMutability": "nonpayable",
      "type": "function"
    },
    {
      "inputs": [
        {
          "internalType": "uint256",
          "name": "index",
          "type": "uint256"
        },
        {
          "internalType": "uint256",
          "name": "amount",
          "type": "uint256"
        }
      ],
      "name": "withdraw",
      "outputs": [],
      "stateMutability": "nonpayable",
      "type": "function"
    }
  ],
  "bytecode": "0x6080604052600060025534801561001557600080fd5b50336000806101000a81548173ffffffffffffffffffffffffffffffffffffffff021916908373ffffffffffffffffffffffffffffffffffffffff16021790555061155e806100656000396000f3fe6080604052600436106100705760003560e01c806390dd26271161004e57806390dd2627146100f2578063a98e4e771461011b578063b6b55f2514610146578063ce88b1451461016257610070565b8063298daf5b14610075578063441a3e701461009e5780638da5cb5b146100c7575b600080fd5b34801561008157600080fd5b5061009c60048036038101906100979190610c70565b61019f565b005b3480156100aa57600080fd5b506100c560048036038101906100c09190610ce6565b6102d8565b005b3480156100d357600080fd5b506100dc6105a6565b6040516100e99190610fa3565b60405180910390f35b3480156100fe57600080fd5b5061011960048036038101906101149190610d26565b6105ca565b005b34801561012757600080fd5b50610130610819565b60405161013d91906110d0565b60405180910390f35b610160600480360381019061015b9190610cb9565b610823565b005b34801561016e57600080fd5b5061018960048036038101906101849190610cb9565b610a30565b60405161019691906110ae565b60405180910390f35b60008054906101000a900473ffffffffffffffffffffffffffffffffffffffff1673ffffffffffffffffffffffffffffffffffffffff163373ffffffffffffffffffffffffffffffffffffffff161461022d576040517f08c379a000000000000000000000000000000000000000000000000000000000815260040161022490610fee565b60405180910390fd5b60405180608001604052806002548152602001828152602001600081526020016001151581525060016000600254815260200190815260200160002060008201518160000155602082015181600101908051906020019061028f929190610b1e565b506040820151816002015560608201518160030160006101000a81548160ff021916908315150217905550905050600260008154809291906102d0906112fa565b919050555050565b60008054906101000a900473ffffffffffffffffffffffffffffffffffffffff1673ffffffffffffffffffffffffffffffffffffffff163373ffffffffffffffffffffffffffffffffffffffff1614610366576040517f08c379a000000000000000000000000000000000000000000000000000000000815260040161035d90610fee565b60405180910390fd5b600081116103a9576040517f08c379a00000000000000000000000000000000000000000000000000000000081526004016103a09061100e565b60405180910390fd5b60008210156103ed576040517f08c379a00000000000000000000000000000000000000000000000000000000081526004016103e49061104e565b60405180910390fd5b6001600083815260200190815260200160002060030160009054906101000a900460ff16610450576040517f08c379a00000000000000000000000000000000000000000000000000000000081526004016104479061102e565b60405180910390fd5b80600160008481526020019081526020016000206002015410156104a9576040517f08c379a00000000000000000000000000000000000000000000000000000000081526004016104a09061108e565b60405180910390fd5b3373ffffffffffffffffffffffffffffffffffffffff167f2d4b597935f3cd67fb2eebf1db4debc934cee5c7baa7153f980fdbeb2e74084e6001600085815260200190815260200160002060010183604051610506929190610fbe565b60405180910390a28060016000848152602001908152602001600020600201600082825461053491906111d9565b9250508190555060008054906101000a900473ffffffffffffffffffffffffffffffffffffffff1673ffffffffffffffffffffffffffffffffffffffff166108fc829081150290604051600060405180830381858888f193505050501580156105a1573d6000803e3d6000fd5b505050565b60008054906101000a900473ffffffffffffffffffffffffffffffffffffffff1681565b60008054906101000a900473ffffffffffffffffffffffffffffffffffffffff1673ffffffffffffffffffffffffffffffffffffffff163373ffffffffffffffffffffffffffffffffffffffff1614610658576040517f08c379a000000000000000000000000000000000000000000000000000000000815260040161064f90610fee565b60405180910390fd5b6000811161069b576040517f08c379a00000000000000000000000000000000000000000000000000000000081526004016106929061100e565b60405180910390fd5b6001600083815260200190815260200160002060030160009054906101000a900460ff166106fe576040517f08c379a00000000000000000000000000000000000000000000000000000000081526004016106f59061102e565b60405180910390fd5b8060016000848152602001908152602001600020600201541015610757576040517f08c379a000000000000000000000000000000000000000000000000000000000815260040161074e9061108e565b60405180910390fd5b6001600084815260200190815260200160002060030160009054906101000a900460ff166107ba576040517f08c379a00000000000000000000000000000000000000000000000000000000081526004016107b19061106e565b60405180910390fd5b806001600084815260200190815260200160002060020160008282546107e091906111d9565b925050819055508060016000858152602001908152602001600020600201600082825461080d9190611183565b92505081905550505050565b6000600254905090565b60008054906101000a900473ffffffffffffffffffffffffffffffffffffffff1673ffffffffffffffffffffffffffffffffffffffff163373ffffffffffffffffffffffffffffffffffffffff16146108b1576040517f08c379a00000000000000000000000000000000000000000000000000000000081526004016108a890610fee565b60405180910390fd5b600034116108f4576040517f08c379a00000000000000000000000000000000000000000000000000000000081526004016108eb9061100e565b60405180910390fd5b6000811015610938576040517f08c379a000000000000000000000000000000000000000000000000000000000815260040161092f9061104e565b60405180910390fd5b6001600082815260200190815260200160002060030160009054906101000a900460ff1661099b576040517f08c379a00000000000000000000000000000000000000000000000000000000081526004016109929061102e565b60405180910390fd5b3373ffffffffffffffffffffffffffffffffffffffff167f2d4b597935f3cd67fb2eebf1db4debc934cee5c7baa7153f980fdbeb2e74084e60016000848152602001908152602001600020600101346040516109f8929190610fbe565b60405180910390a234600160008381526020019081526020016000206002016000828254610a269190611183565b9250508190555050565b610a38610ba4565b6001600083815260200190815260200160002060405180608001604052908160008201548152602001600182018054610a7090611297565b80601f0160208091040260200160405190810160405280929190818152602001828054610a9c90611297565b8015610ae95780601f10610abe57610100808354040283529160200191610ae9565b820191906000526020600020905b815481529060010190602001808311610acc57829003601f168201915b50505050508152602001600282015481526020016003820160009054906101000a900460ff1615151515815250509050919050565b828054610b2a90611297565b90600052602060002090601f016020900481019282610b4c5760008555610b93565b82601f10610b6557805160ff1916838001178555610b93565b82800160010185558215610b93579182015b82811115610b92578251825591602001919060010190610b77565b5b509050610ba09190610bce565b5090565b60405180608001604052806000815260200160608152602001600081526020016000151581525090565b5b80821115610be7576000816000905550600101610bcf565b5090565b6000610bfe610bf984611110565b6110eb565b905082815260208101848484011115610c1a57610c196113d5565b5b610c25848285611255565b509392505050565b600082601f830112610c4257610c416113d0565b5b8135610c52848260208601610beb565b91505092915050565b600081359050610c6a81611511565b92915050565b600060208284031215610c8657610c856113df565b5b600082013567ffffffffffffffff811115610ca457610ca36113da565b5b610cb084828501610c2d565b91505092915050565b600060208284031215610ccf57610cce6113df565b5b6000610cdd84828501610c5b565b91505092915050565b60008060408385031215610cfd57610cfc6113df565b5b6000610d0b85828601610c5b565b9250506020610d1c85828601610c5b565b9150509250929050565b600080600060608486031215610d3f57610d3e6113df565b5b6000610d4d86828701610c5b565b9350506020610d5e86828701610c5b565b9250506040610d6f86828701610c5b565b9150509250925092565b610d828161120d565b82525050565b610d918161121f565b82525050565b6000610da282611156565b610dac8185611161565b9350610dbc818560208601611264565b610dc5816113e4565b840191505092915050565b60008154610ddd81611297565b610de78186611172565b94506001821660008114610e025760018114610e1457610e47565b60ff1983168652602086019350610e47565b610e1d85611141565b60005b83811015610e3f57815481890152600182019150602081019050610e20565b808801955050505b50505092915050565b6000610e5d600c83611172565b9150610e68826113f5565b602082019050919050565b6000610e80602183611172565b9150610e8b8261141e565b604082019050919050565b6000610ea3601083611172565b9150610eae8261146d565b602082019050919050565b6000610ec6600b83611172565b9150610ed182611496565b602082019050919050565b6000610ee9601883611172565b9150610ef4826114bf565b602082019050919050565b6000610f0c601383611172565b9150610f17826114e8565b602082019050919050565b6000608083016000830151610f3a6000860182610f85565b5060208301518482036020860152610f528282610d97565b9150506040830151610f676040860182610f85565b506060830151610f7a6060860182610d88565b508091505092915050565b610f8e8161124b565b82525050565b610f9d8161124b565b82525050565b6000602082019050610fb86000830184610d79565b92915050565b60006040820190508181036000830152610fd88185610dd0565b9050610fe76020830184610f94565b9392505050565b6000602082019050818103600083015261100781610e50565b9050919050565b6000602082019050818103600083015261102781610e73565b9050919050565b6000602082019050818103600083015261104781610e96565b9050919050565b6000602082019050818103600083015261106781610eb9565b9050919050565b6000602082019050818103600083015261108781610edc565b9050919050565b600060208201905081810360008301526110a781610eff565b9050919050565b600060208201905081810360008301526110c88184610f22565b905092915050565b60006020820190506110e56000830184610f94565b92915050565b60006110f5611106565b905061110182826112c9565b919050565b6000604051905090565b600067ffffffffffffffff82111561112b5761112a6113a1565b5b611134826113e4565b9050602081019050919050565b60008190508160005260206000209050919050565b600081519050919050565b600082825260208201905092915050565b600082825260208201905092915050565b600061118e8261124b565b91506111998361124b565b9250827fffffffffffffffffffffffffffffffffffffffffffffffffffffffffffffffff038211156111ce576111cd611343565b5b828201905092915050565b60006111e48261124b565b91506111ef8361124b565b92508282101561120257611201611343565b5b828203905092915050565b60006112188261122b565b9050919050565b60008115159050919050565b600073ffffffffffffffffffffffffffffffffffffffff82169050919050565b6000819050919050565b82818337600083830152505050565b60005b83811015611282578082015181840152602081019050611267565b83811115611291576000848401525b50505050565b600060028204905060018216806112af57607f821691505b602082108114156112c3576112c2611372565b5b50919050565b6112d2826113e4565b810181811067ffffffffffffffff821117156112f1576112f06113a1565b5b80604052505050565b60006113058261124b565b91507fffffffffffffffffffffffffffffffffffffffffffffffffffffffffffffffff82141561133857611337611343565b5b600182019050919050565b7f4e487b7100000000000000000000000000000000000000000000000000000000600052601160045260246000fd5b7f4e487b7100000000000000000000000000000000000000000000000000000000600052602260045260246000fd5b7f4e487b7100000000000000000000000000000000000000000000000000000000600052604160045260246000fd5b600080fd5b600080fd5b600080fd5b600080fd5b6000601f19601f8301169050919050565b7f556e617574686f72697a65640000000000000000000000000000000000000000600082015250565b7f506c6561736520456e746572204d6f6e65792047726561746572207468656e2060008201527f3000000000000000000000000000000000000000000000000000000000000000602082015250565b7f6e6f742068617665206163636f756e7400000000000000000000000000000000600082015250565b7f696e646578206572726f72000000000000000000000000000000000000000000600082015250565b7f6e6f742068617665206163636f756e7420726563697665720000000000000000600082015250565b7f796f75206e6f742068617665206d6f6d6e657900000000000000000000000000600082015250565b61151a8161124b565b811461152557600080fd5b5056fea264697066735822122085fb7c2a6e5a833836fdc360e8a45aee9462b7584d39e4af355bbbdf5c8c1aac64736f6c63430008070033",
  "linkReferences": {},
  "deployedLinkReferences": {}
}